{
  "contractName": "Adoption",
  "abi": [
    {
      "inputs": [
        {
          "internalType": "uint256",
          "name": "",
          "type": "uint256"
        }
      ],
      "name": "adoptors",
      "outputs": [
        {
          "internalType": "address",
          "name": "",
          "type": "address"
        }
      ],
      "stateMutability": "view",
      "type": "function"
    },
    {
      "inputs": [
        {
          "internalType": "uint256",
          "name": "petId",
          "type": "uint256"
        }
      ],
      "name": "adopt",
      "outputs": [
        {
          "internalType": "uint256",
          "name": "",
          "type": "uint256"
        }
      ],
      "stateMutability": "nonpayable",
      "type": "function"
    },
    {
      "inputs": [],
      "name": "getAdoptors",
      "outputs": [
        {
          "internalType": "address[16]",
          "name": "",
          "type": "address[16]"
        }
      ],
      "stateMutability": "view",
      "type": "function"
    }
  ],
  "bytecode": "0x608060405234801561001057600080fd5b506104b8806100206000396000f3fe608060405234801561001057600080fd5b50600436106100415760003560e01c80638588b2c514610046578063c71834dd14610076578063f500364c146100a6575b600080fd5b610060600480360381019061005b919061027a565b6100c4565b60405161006d91906103d6565b60405180910390f35b610090600480360381019061008b919061027a565b61018b565b60405161009d919061037f565b60405180910390f35b6100ae6101c1565b6040516100bb919061039a565b60405180910390f35b600060108210610109576040517f08c379a0000000000000000000000000000000000000000000000000000000008152600401610100906103b6565b60405180910390fd5b3360008360108110610144577f4e487b7100000000000000000000000000000000000000000000000000000000600052603260045260246000fd5b0160006101000a81548173ffffffffffffffffffffffffffffffffffffffff021916908373ffffffffffffffffffffffffffffffffffffffff160217905550819050919050565b6000816010811061019b57600080fd5b016000915054906101000a900473ffffffffffffffffffffffffffffffffffffffff1681565b6101c9610242565b6000601080602002604051908101604052809291908260108015610238576020028201915b8160009054906101000a900473ffffffffffffffffffffffffffffffffffffffff1673ffffffffffffffffffffffffffffffffffffffff16815260200190600101908083116101ee575b5050505050905090565b604051806102000160405280601090602082028036833780820191505090505090565b6000813590506102748161046b565b92915050565b60006020828403121561028c57600080fd5b600061029a84828501610265565b91505092915050565b60006102af83836102bb565b60208301905092915050565b6102c48161042f565b82525050565b6102d38161042f565b82525050565b6102e2816103fb565b6102ec8184610413565b92506102f7826103f1565b8060005b8381101561032857815161030f87826102a3565b965061031a83610406565b9250506001810190506102fb565b505050505050565b600061033d600e8361041e565b91507f496e76616c6964207065742049440000000000000000000000000000000000006000830152602082019050919050565b61037981610461565b82525050565b600060208201905061039460008301846102ca565b92915050565b6000610200820190506103b060008301846102d9565b92915050565b600060208201905081810360008301526103cf81610330565b9050919050565b60006020820190506103eb6000830184610370565b92915050565b6000819050919050565b600060109050919050565b6000602082019050919050565b600081905092915050565b600082825260208201905092915050565b600061043a82610441565b9050919050565b600073ffffffffffffffffffffffffffffffffffffffff82169050919050565b6000819050919050565b61047481610461565b811461047f57600080fd5b5056fea26469706673582212205ed1e719f0f5ea5374c1a5cd77fdfa58ff32423d4e60214f2936413a84ddb95164736f6c63430008000033",
  "immutableReferences": {},
  "source": "// SPDX-License-Identifier: MIT\npragma solidity ^0.8.0;\n\ncontract Adoption {\n    address[16] public adoptors; // \n\n    function adopt(uint petId) public returns (uint) {\n        require(petId < 16, \"Invalid pet ID\"); //  petId  0-15 \n\n        adoptors[petId] = msg.sender;\n        return petId;\n    }\n\n    function getAdoptors() public view returns (address[16] memory) {\n        return adoptors;\n    }\n}\n",
  "sourcePath": "/Users/chenghao/VsCodeProjects/PetShop/pet-shop-box/contracts/Adoption.sol",
  "compiler": {
    "name": "solc",
    "version": "0.8.0+commit.c7dfd78e.Emscripten.clang"
  },
  "schemaVersion": "3.4.16",
  "updatedAt": "2025-02-19T00:44:01.054Z",
  "devdoc": {
    "kind": "dev",
    "methods": {},
    "version": 1
  },
  "userdoc": {
    "kind": "user",
    "methods": {},
    "version": 1
  }
}